:020000040000FA
:1000000008070020D5000000F9660000FB6600002C
:1000100000000000000000000000000000000000E0
:10002000000000000000000000000000FF6600006B
:1000300000000000000000000167000003670000EE
:10004000EB000000EB000000EB000000EB00000004
:10005000EB000000EB000000EB000000EB000000F4
:1000600005670000EB00000021670000EB000000C6
:100070009F270000000000000000000000000000BA
:10008000EB000000EB0000003D670000EB0000000B
:1000900000000000EB000000EB00000079670000AA
:1000A000CF500000EB00000000000000EB0000005B
:1000B000EB000000EB00000000000000EB0000007F
:1000C0000348854607F006FC00480047CF4700007C
:1000D0000807002005488047054880470548004735
:1000E000FEE7FEE7FEE7FEE7FEE7FEE7F9000000B9
:1000F000A5010000C100000000B500BF00BF00BFA7
:1001000000BF00BF19481A4901601A481A4F00F091
:1001100010F81A481A4F00F00CF81A481A4F00F05D
:1001200008F81A481A4F00F004F8104819490160FD
:1001300000BD00B5184A0168914203D1016891429F
:1001400000D112E0154D164C0A0022400B0A234044
:10015000D2180B0C2340D21822400B0E9A4203D027
:10016000013D02D00168EFE7396000BD800000402A
:10017000699655AA24011000A4000040280110002F
:10018000A80000402C0110009C000040300110002D
:10019000A000004000000000FFFFFFFF0300000080
:1001A000FF000000704770B5044601200007466854
:1001B00072B62046B047054662B6284670BDF8B50F
:1001C00004460D4601200007866872B6294620467F
:1001D000B047074662B63846F8BDFFB581B0044661
:1001E0000D46164601200007076872B632462946BA
:1001F0002046049BB847009062B6009805B0F0BD59
:1002000070B503460C461E462546002A01D1002043
:1002100070BD002105E028683060361D2D1D481C8A
:10022000C1B29142F7DB0120F2E700000020A849AB
:1002300048604120000388608815C860002008617C
:1002400048618862A34808630020A14940310860E2
:10025000704700B502461078012814DC5078072852
:1002600011DC907801280EDCD07803280BDC1079A3
:10027000022808DC5079102805DC9079012802DC7E
:10028000D0791F2801DD002000BDFFF7CFFF01203E
:100290009149086088609149086248628F494039F5
:1002A00088638B48C068400940015179C906C90E6E
:1002B00008438749C860107888494039C860844835
:1002C0008068C008C00051784907490F0843804939
:1002D000886008468068032109028843D1780902B2
:1002E00003231B02194008437949886010797B4930
:1002F00040398862907878494860D078012802D0E7
:10030000D078022804D1012074494039C86203E042
:10031000002072494039C8620020704940310862AB
:1003200090796E4940390863694880681F21090443
:100330008843D17909041F231B04194008436449E9
:10034000886001206549C039086000BF9CE701460C
:100350004888634A904209DC0879032806DCC8888B
:10036000604A904202DC0889904201DD002070471B
:100370000878012856D159484038C068002802D171
:10038000594A106102E00120574A10615048806AC2
:10039000000B00034A881205120D10434C4A90626C
:1003A0001046806A0322120490430A791204032340
:1003B0001B041A401043464A90620120474AC0324B
:1003C000D0600889002801D190600FE04048006BA0
:1003D000404AD24310400A8912043E4B1A4010434F
:1003E0003B4A106301203D4AC0329060C8883D4AB4
:1003F000904204D10020394AC03250600DE03448A8
:10040000006B000B0003CA881205120D1043304A1E
:1004100010630120314AC032506001202F4AC03A97
:10042000906003E000202D4AC03A906001209EE7D2
:100430002A484038006B002800D170470120274926
:10044000C039486000BFF8E724484038006B0128F5
:1004500001D100207047012020494039486300BF86
:10046000F8E71E484038006B012801D10020704792
:1004700000201A49403948630120F8E71448006811
:100480000005000D70471548C0384068002800D1AD
:1004900070470120FCE70E48406B0005000D7047D7
:1004A00001460B484069084201D0012070470020F6
:1004B000FCE7014606480069084201D00120704768
:1004C0000020FCE70146024841610120704700001E
:1004D000001000400000FF0F0008024240010242ED
:1004E000C3090000FF0F000040050242AB4908604D
:1004F0007047F8B504460D4600260027012D19D196
:10050000A74909680809214606F018FE0E46700042
:10051000A04207D8A24909680809214606F00EFE44
:10052000471E5AE09E4909680809214606F006FE62
:10053000074652E0022D19D1994909684809214618
:1005400006F0FCFD0E467000A04207D894490968E9
:100550004809214606F0F2FD471E3EE09049096831
:100560004809214606F0EAFD074636E0032D19D179
:100570008B4909688809214606F0E0FD0E467000A7
:10058000A04207D8864909688809214606F0D6FDA9
:10059000471E22E0824909688809214606F0CEFDFF
:1005A00007461AE0042D18D17D490968C80921467B
:1005B00006F0C4FD0E467000A04207D878490968CD
:1005C000C809214606F0BAFD471E06E074490968CD
:1005D000C809214606F0B2FD07467248874201D994
:1005E000401C00E0384607466F4840680721090272
:1005F0008843290207221202114008436A494860D1
:1006000008460069C00AC0027905490D08436649D9
:100610000861F8BD10B50446217BA068FFF769FFAB
:10062000207862494863604800680F2109028843C6
:10063000617809020F221202114008435A490860EA
:10064000A0785A4908635848006811048843E17843
:1006500009061204114008435349086020795349A0
:100660004031086310BD002905D04F4A926902430A
:100670004D4B9A6104E04C4A926982434A4B9A611D
:10068000704749494968890889008207920F1143D8
:10069000454A5160704744494968302291430201FC
:1006A00030231A401143404A5160704701460020F0
:1006B0003D4AD2690A4200D001207047014600201D
:1006C000394A92690A4200D0012070473649C86110
:1006D000704710B5044621786068FFF70AFF207A5A
:1006E0002E498860607AC860A07A0861E07A486123
:1006F000207B8861607BC861A07B0862E07B4862E8
:1007000029488068032189028843217C89020322C9
:10071000920211400843244988600846806891008D
:100720008843617C09039200114008431E49886098
:100730000846806891008843A17C8903920011409B
:1007400008431949886008468068FF2109048843E6
:10075000E17C0904FF221204114008431249886019
:1007600010BD0E49086170470C49486170470E4939
:100770002031087070470C492031088070470A49C1
:1007800008627047084820300079704706482030DA
:10079000808870470448406A7047000000010E429C
:1007A00000000020FE0700000070004000000E4224
:1007B00030B50246002906D0012906D0022906D00C
:1007C000032908D105E0002007E0012005E0022010
:1007D00003E0032001E0002000BF00BF130007F08A
:1007E000D0F82E18222D3A4754616E7B85909DAA31
:1007F000B7C4F0FDEDECEBEAE9E8E7E6E5E4E3E2B7
:10080000E1E0DFDEDDDCDBDAD9D8D7D6D5D4D3D250
:10081000D1D0FC4B5B6A9B089B008407A40F234349
:10082000F84C63627BE2F74B5B6A3024A34304011C
:1008300030252C402343F34C636270E2F14B5B6A3A
:1008400003242402A343040203252D022C40234346
:10085000EC4C636263E2EB4B5B6A03242403A34327
:10086000040303252D032C402343E64C636256E228
:10087000E44B5B6A03242404A343040403252D04EE
:100880002C402343DF4C636249E2DE4B5B6A032466
:100890002405A343040503252D052C402343D94CEF
:1008A00063623CE2D74B5B6A03242406A34304063D
:1008B00003252D062C402343D24C63622FE2D14BFB
:1008C0005B6A03242407A343040703252D072C4058
:1008D0002343CC4C636222E2CA4B9B6A9B089B0079
:1008E0008407A40F2343C74CA36218E2C54B9B6A3D
:1008F0003024A343040130252C402343C14CA36280
:100900000DE2C04B9B6A03242402A3430402032587
:100910002D022C402343BB4CA36200E2B94B9B6ADF
:1009200003242403A343040303252D032C40234362
:10093000B44CA362F3E1B34B9B6A03242404A343A6
:10094000040403252D042C402343AE4CA362E6E1AE
:10095000AC4B9B6A03242405A343040503252D0502
:100960002C402343A74CA362D9E1A64B803B5B6A92
:100970009B089B008407A40F2343A24C803C636226
:10098000CDE1CBE1BDE1AFE1A1E193E185E177E12B
:100990006BE160E152E144E136E123E113E103E17F
:1009A000F5E0E8E0D8E0C8E0B8E0A8E098E088E04A
:1009B0007AE06DE05DE04DE03DE02DE01DE00DE012
:1009C000FFE7904B803B5B6A3024A3430401302552
:1009D0002C4023438B4C803C6362A0E1894B803BDD
:1009E0005B6A03242402A343040203252D022C4046
:1009F0002343844C803C636291E1824B803B5B6A81
:100A000003242403A343040303252D032C40234381
:100A10007C4C803C636282E17A4B803B5B6A0324BE
:100A20002404A343040403252D042C402343754CC4
:100A3000803C636273E1734B803B5B6A0324240553
:100A4000A343040503252D052C4023436D4C803C16
:100A5000636264E16B4B803B5B6A03242406A3431F
:100A6000040603252D062C402343664C803C63621C
:100A700055E1644B803B5B6A03242407A3430407CE
:100A800003252D072C4023435E4C803C636246E1E6
:100A90005C4B803B9B6A9B089B008407A40F23430D
:100AA000584C803CA3623AE1564B803B9B6A302411
:100AB000A343040130252C402343524C803CA362C5
:100AC0002DE1504B803B9B6A03242402A343040284
:100AD00003252D022C4023434A4C803CA3621EE197
:100AE000484B803B9B6A03242403A3430403032550
:100AF0002D032C402343434C803CA3620FE1414B28
:100B0000803B9B6A03242404A343040403252D048F
:100B10002C4023433B4C803CA36200E1394B803B9B
:100B20009B6A03242405A343040503252D052C40BB
:100B30002343344C803CA362F1E0324B803B9B6A00
:100B400003242406A343040603252D062C40234337
:100B50002C4C803CA362E2E02A4B803B9B6A03243E
:100B60002407A343040703252D072C402343254CCA
:100B7000803CA362D3E0234B803BDB6A9B089B0055
:100B80008407A40F23431F4C803CE362C7E01D4B46
:100B9000803BDB6A3024A343040130252C402343EF
:100BA000184C803CE362BAE0164B803BDB6A0324BE
:100BB0002402A343040203252D022C402343114C9D
:100BC000803CE362ABE00F4B803BDB6A03242403F1
:100BD000A343040303252D032C402343094C803CED
:100BE000E3629CE0074B803BDB6A03242404A343BD
:100BF000040403252D042C402343024C803CE36273
:100C00008DE0000080040040F74BDB6A03242405DC
:100C1000A343040503252D052C402343F24CE36236
:100C20007DE0F14BDB6A03242406A343040603257D
:100C30002D062C402343EC4CE36270E0EA4BDB6A68
:100C400003242407A343040703252D072C40234333
:100C5000E54CE36263E0E44B1B6B9B089B0084075D
:100C6000A40F2343E04C236359E0DF4B1B6B30247C
:100C7000A343040130252C402343DB4C23634EE087
:100C8000D94B1B6B03242402A343040203252D022A
:100C90002C402343D44C236341E0D34B1B6B0324F0
:100CA0002403A343040303252D032C402343CE4CEC
:100CB000236334E0CC4B1B6B03242404A3430404C0
:100CC00003252D042C402343C74C236327E0C64B48
:100CD0001B6B03242405A343040503252D052C4089
:100CE0002343C14C23631AE0BF4B1B6B0324240630
:100CF000A343040603252D062C402343BA4C23634B
:100D00000DE0B94B1B6B03242407A3430407032501
:100D10002D072C402343B44C236300E000BF00BFE9
:100D200030BD00B501460B0006F02BFE2E181A1C34
:100D30001E20222426282A2C2E30323436383A3CE3
:100D40003E40424446484A4C4E50525456585A5CD3
:100D50005E60626466686A6C6E70727400205BE04C
:100D6000012059E0022057E0032055E0042053E021
:100D7000052051E006204FE007204DE008204BE021
:100D8000092049E00A2047E00B2045E00C2043E021
:100D90000D2041E000203FE001203DE002203BE04B
:100DA000032039E0042037E0052035E0062033E059
:100DB000072031E008202FE009202DE00A202BE059
:100DC0000B2029E00C2027E00D2025E00E2023E059
:100DD0000F2021E010201FE011201DE012201BE059
:100DE000132019E0142017E0152015E0162013E059
:100DF000172011E018200FE019200DE01A200BE059
:100E00001B2009E01C2007E01D2005E01E2003E058
:100E10001F2001E0002000BF00BF00BD30B5054627
:100E20000C462846FFF77DFF02460D2D0DDC012CF8
:100E300005D1012090406C498031886110E001208B
:100E4000904069498031C8610AE0012C04D1012039
:100E500090406549886103E0012090406249C86183
:100E600030BD30B505460C462846FFF75AFF02460E
:100E70000D2D15DC002C09D15B488030806B0121E1
:100E8000914088435849803188631AE05648803041
:100E9000806B01219140084353498031886310E001
:100EA000002C07D15048816B0120904081434E486F
:100EB000816306E04C48806B0121914008434A4918
:100EC000886330BD30B505460C462846FFF729FF3C
:100ED00002460D2D15DC002C09D14348C030406876
:100EE0000121914088434049C03148601EE03E489E
:100EF000C03040680121914008433B49C0314860FF
:100F000014E0002C09D1384840304168012090405D
:100F1000814335484030416008E033484030406804
:100F200001219140084330494031486030BD30B51F
:100F300005460C462846FFF7F4FE02460D2D15DC4B
:100F4000002C09D128488030C06B01219140884392
:100F500025498031C8631AE023488030C06B0121E5
:100F60009140084320498031C86310E0002C07D12C
:100F70001D48C16B0120904081431B48C16306E0BE
:100F80001948C06B0121914008431749C86330BD1F
:100F900030B505460C462846FFF7C3FE02460D2D28
:100FA00015DC002C09D11048C030006801219140A7
:100FB00088430D49C03108601FE00B48C03000680D
:100FC0000121914008430849C031086015E0002C18
:100FD0000CD105484030016801209040814302480F
:100FE0004030016009E0000000040040FC48006857
:100FF000012191400843FA49086030BD30B50546EB
:101000000C462846FFF78DFE02460D2D15DC002C00
:1010100009D1F3484030406B012191408843F049A9
:10102000403148631EE0EE484030406B0121914062
:101030000843EB494031486314E0002C09D1E848EB
:101040004038416B012090408143E548403841637E
:1010500008E0E3484038406B012191400843E049F3
:101060004039486330BD30B505460C46207801282C
:101070000CD101212846FFF7C1FF01212846FFF7C7
:10108000CDFE00212846FFF793FB1EE000212846F5
:10109000FFF7B4FF61782846FFF7C0FEA178284625
:1010A000FFF786FB6078002807D1E1782846FFF734
:1010B000D8FE21792846FFF705FF61792846FFF71A
:1010C00036FFA1792846FFF763FF30BD30B50446EF
:1010D0002046FFF726FE05460D2C03DCC0484030B5
:1010E000026802E0BE48403802681046E840024606
:1010F000D207D20F104630BD30B505460C46284603
:10110000FFF70FFE02460D2D0DDC012C05D101204D
:101110009040B3494031886012E001209040B049CE
:101120004031C8600CE0012C05D101209040AC4951
:101130004039886004E001209040A9494039C860E6
:1011400030BD10B502461046FFF7EBFD04460D2AF0
:1011500005DC0120A040A2494031886004E0012064
:10116000A0409F494039886010BD10B50246104626
:10117000FFF7D7FD04460D2A05DC0120A040984961
:101180004031C86004E00120A04095494039C86062
:1011900010BD10B502461046FFF7C3FD04460D2AE8
:1011A00005DC0120A0408E494031086104E00120A7
:1011B000A0408B494039086110BD00B501460B00C5
:1011C00006F0DFFB2E1C232A31383F464C1D242B12
:1011D000323940181F262D343B42481920272E351E
:1011E0003C43491A21282F363D444A1B22293037D7
:1011F0003E454B4E00BF00BF00BF00BF00BF0020F8
:1012000030E000BF00BF00BF00BF00BF012029E0E9
:1012100000BF00BF00BF00BF00BF022022E000BF30
:1012200000BF00BF00BF00BF03201BE000BF00BF26
:1012300000BF00BF00BF042014E000BF00BF00BF1C
:1012400000BF00BF05200DE000BF00BF00BF00BF12
:10125000062007E000BF00BF00BF00BF072001E07D
:10126000002000BF00BF00BD70B506460D463046E9
:10127000FFF7A3FF04465B48C268A100072088402F
:10128000114681430A462B0006F07BFB0504090E3C
:1012900013181D00A10000208840024314E0A100A3
:1012A0000120884002430FE0A10002208840024351
:1012B0000AE0A10003208840024305E0A1000420C9
:1012C0008840024300E000BF00BF4648C26070BDD6
:1012D00000B501460B0006F054FB2E3C3D3E3F405E
:1012E00041424345464748494A18191A1B1C1D1ECE
:1012F0001F21222324252627282A2B2C2D2E2F3070
:1013000031333435363738393A4C00BF00BF00BF6F
:1013100000BF00BF00BF00BF00202CE000BF00BF27
:1013200000BF00BF00BF00BF00BF012023E000BF1F
:1013300000BF00BF00BF00BF00BF00BF02201AE017
:1013400000BF00BF00BF00BF00BF00BF00BF032041
:1013500011E000BF00BF00BF00BF00BF00BF00BF63
:10136000042008E000BF00BF00BF00BF00BF052091
:1013700001E0002000BF00BF00BDF0B506460D46ED
:101380003046FFF71AFF02463046FFF7A1FF074637
:1013900014488468910007208840214681430C4608
:1013A00091003846884004430E48846001209040F4
:1013B0000C49486008460468002D17D10120904070
:1013C000214681430C4611460831012088400443E0
:1013D00004480460012090400349086016E00000C2
:1013E000400400400007004080E100E00120904000
:1013F00004431146083101208840214681430C46B0
:10140000E648046001209040E5490860F0BD30B531
:1014100005460C4661782846FFF726FF21782846C6
:10142000FFF7ABFF30BD30B504462046FFF7C5FEE1
:101430000546DA4842680120A8400243D748426086
:1014400030BD30B504462046FFF7B7FE0546D34809
:1014500042681046E8400246D207D20F104630BD1F
:1014600000B501460B0006F08CFA2E1C232A3138F9
:101470003F464C1D242B323940181F262D343B4249
:10148000481920272E353C43491A21282F363D4440
:101490004A1B222930373E454B4E00BF00BF00BFDC
:1014A00000BF00BF002030E000BF00BF00BF00BF92
:1014B00000BF012029E000BF00BF00BF00BF00BF88
:1014C000022022E000BF00BF00BF00BF00BF03201A
:1014D0001BE000BF00BF00BF00BF00BF042014E03E
:1014E00000BF00BF00BF00BF00BF05200DE000BF70
:1014F00000BF00BF00BF062007E000BF00BF00BF65
:1015000000BF072001E0002000BF00BF00BD70B594
:1015100006460D463046FFF7A3FF04469F48C269C2
:10152000A10007208840114681430A462B0006F09F
:1015300028FA0504090E13181D00A1000020884098
:10154000024314E0A1000120884002430FE0A10003
:101550000220884002430AE0A100032088400243A1
:1015600005E0A10004208840024300E000BF00BF66
:101570008A48C26170BD00B501460B0006F001FA51
:101580002E3C3D3E3F4041424345464748494A186C
:10159000191A1B1C1D1E1F21222324252627282A39
:1015A0002B2C2D2E2F3031333435363738393A4CF9
:1015B00000BF00BF00BF00BF00BF00BF00BF0020D2
:1015C0002CE000BF00BF00BF00BF00BF00BF00BFD6
:1015D000012023E000BF00BF00BF00BF00BF00BF6D
:1015E00000BF02201AE000BF00BF00BF00BF00BF65
:1015F00000BF00BF032011E000BF00BF00BF00BF5D
:1016000000BF00BF00BF042008E000BF00BF00BF54
:1016100000BF00BF052001E0002000BF00BF00BDEB
:10162000F0B506460D463046FFF71AFF0446304631
:10163000FFF7A1FF074659488269A10007208840AB
:10164000114681430A46A100384688400243534868
:1016500082610120A0400246504842610269002D8B
:1016600010D10120A040114681430A46214608318D
:1016700001208840024349480261001348498031F3
:1016800008600EE00120A0400243214608310120FD
:101690008840114681430A46404802610013404990
:1016A0000860F0BD30B505460C4661782846FFF766
:1016B0002EFF21782846FFF7B3FF30BD30B5024634
:1016C0001046FFF7CDFE05460120A84004463348EA
:1016D000446130BD30B504462046FFF7C1FE0546E3
:1016E0002E4842691046E8400246D207D20F104603
:1016F00030BD30B5294C80342468A408A4008D077F
:10170000AD0F2C43254D80352C60264CA060002960
:1017100000D130BD002A06D0012A07D0022A08D005
:10172000032A0CD108E01F4C236108E01D4C6361C3
:1017300005E01C4CA36102E01A4CE36100BF00BF4E
:1017400000BFE6E770B5174CA062144C80342468E3
:1017500003252D02AC430D020326360235402C43EF
:101760000E4D80352C60002900D170BD002A06D0B6
:10177000012A07D0022A08D0032A0CD108E0094C1C
:10178000236308E0074C636305E0064CA36302E0B3
:10179000044CE36300BF00BF00BFE6E70007004062
:1017A00000E100E000F0004230B50B460021002AC5
:1017B00021D02C4C03252D0264198510AD006159F0
:1017C0008407E50EFF24AC400D46A54329469C073F
:1017D000240E8507ED0EAC402143224C03252D023B
:1017E00064198510AD006151C506ED0E0124AC40B1
:1017F0001C4D2C6006E0C506ED0E0124AC40194DD1
:1018000080352C6030BD002905D0174A126902438B
:10181000154B1A6104E0144A12698243124B1A6193
:101820007047114800687047014600200F4B0A6856
:101830005A6100229A610A79002A02D004221043D8
:1018400003E0042302469A4310464A79002A02D054
:101850000222104303E0022302469A431046034A41
:101860001061704700E100E000ED00E000E000E002
:1018700010B5026906239A430B785B0006242340C7
:101880001A430261026908239A434B78DB0008245B
:1018900023401A430261026930239A438B781B016B
:1018A000302423401A4302610269C0239A43CB7853
:1018B0009B01C02423401A430261C268120A12022B
:1018C0000B795B1EDBB21A43C26010BD10B54269D2
:1018D000FF2301339A434B781B02FF24013423403A
:1018E0001A434261426963009A430B785B026400C9
:1018F00023401A4342614269520852008B78DB0749
:10190000DB0F1A434261426902239A43CB785B00A2
:10191000022423401A434261426904239A430B790B
:101920009B00042423401A434261426908239A43DE
:101930004B79DB00082423401A4342614269F023BB
:101940009A438B791B01F02423401A43426110BD56
:1019500010B58269520852000B78DB07DB0F1A437F
:101960008261826902239A434B785B000224234000
:101970001A438261826904239A438B789B00042472
:1019800023401A438261826908239A43CB78DB00A3
:10199000082423401A438261826930239A430B79D9
:1019A0001B01302423401A438261826940239A43F9
:1019B0004B799B01402423401A43826110BD826A07
:1019C000120A12024B1EDBB21A438262704710B534
:1019D000026903231B029A430B02032424022340BF
:1019E0001A43026110BD10B5026903239B029A439A
:1019F0008B020324A40223401A43026110BD10B5D8
:101A0000026903231B039A430B030324240323408B
:101A10001A43026110BD10B5026903239B039A4368
:101A20008B030324A40323401A43026110BD10B5A5
:101A3000826903231B029A430B02032424022340DE
:101A40001A43826110BD10B5826903239B029A4339
:101A50008B020324A40223401A43826110BD10B5F7
:101A6000826903231B039A430B03032424032340AB
:101A70001A43826110BD10B5826903239B039A4308
:101A80008B030324A40323401A43826110BD002A60
:101A900003D0036A0B43036202E0036A8B430362D1
:101AA0007047026901231B049A4302610268120C09
:101AB00012040A43026002699A43D2180261704715
:101AC000026901231B049A4302614268120C12044A
:101AD0000A43426002699A43D21802617047C268A1
:101AE000120A12024B1EDBB21A43C260704702692F
:101AF00001231B049A4302618268120A12020A43FC
:101B0000826002699A43D21802617047026B120C1C
:101B100012040A4302637047426B120C12040A4318
:101B200042637047826B120C12040A43826370474F
:101B3000C26B120C12040A43C2637047026C120C8F
:101B400012040A4302647047426C120C12040A43E6
:101B5000426470470146086B80B270470146486B8B
:101B600080B270470146886B80B270470146C86BEF
:101B700080B270470146086C80B270470146486CDD
:101B800080B270470146086880B2704701464868D5
:101B900080B2704702460020536A0B4201D00120F8
:101BA00000E0002070474162704701694908490020
:101BB000491C01617047016949084900016170478A
:101BC00010B5826901239B049A438B789B040124FE
:101BD000A40423401A438261826963009A43CB784C
:101BE000DB04640023401A4382618269E3009A4364
:101BF0000B799B05E40023401A43826182696300EC
:101C00009A434B79DB05640023401A438261826961
:101C1000E3119A430B781B04E41123401A438261B9
:101C2000826963009A434B785B04640023401A4343
:101C3000826110BD01468869C001C00F01D001203A
:101C400070470020FCE78169012212069143891840
:101C500081617047002A03D0C36A0B43C36202E06C
:101C6000C36A8B43C362704710B5426806239A4328
:101C70000B785B00062423401A4342604268082325
:101C80009A434B78DB00082423401A4342604268A1
:101C900030239A438B781B01302423401A4342603F
:101CA0004268C0239A43CB789B01C02423401A4347
:101CB00042604269120A12020B795B1EDBB21A43C0
:101CC000426110BD10B58268FF2301339A434B78FF
:101CD0001B02FF24013423401A43826082686300A0
:101CE0009A430B785B02640023401A438260826847
:101CF000520852008B78DB07DB0F1A438260826840
:101D000002239A43CB785B00022423401A4382606B
:101D1000826804239A430B799B00042423401A43CE
:101D20008260826808239A434B79DB0008242340B1
:101D30001A4382608268F0239A438B791B01F02456
:101D400023401A43826010BD10B5826801231B0432
:101D50009A430B781B040124240423401A43826015
:101D6000826863009A434B785B04640023401A4303
:101D7000826010BD10B5426803231B029A430B0218
:101D80000324240223401A43426010BD10B5426868
:101D900003239B029A438B020324A40223401A4389
:101DA000426010BD10B5426803231B039A430B0326
:101DB0000324240323401A43426010BD10B5426837
:101DC00003239B039A438B030324A40323401A4356
:101DD000426010BD10B5826803231B069A430B06B0
:101DE0000324240623401A43826010BD10B5826884
:101DF00003239B069A438B060324A40623401A431D
:101E0000826010BD10B5826803231B079A430B073D
:101E10000324240723401A43826010BD8268920085
:101E200092088B079B0F9B071A4382607047002A1A
:101E300003D083690B43836102E083698B43836131
:101E40007047426801231B049A43D218426002681B
:101E5000016042689A43426070474269120A120266
:101E60004B1EDBB21A4342617047426801231B04D8
:101E70009A43D21842600269120A12020A430261AE
:101E800042689A4342607047026A01627047426A40
:101E900041627047826A81627047C26AC16270475C
:101EA0000146086A70470146486A70470146886AD9
:101EB00070470146C86A7047014608687047024685
:101EC0000020D3690B4201D0012000E000207047C0
:101ED000C1617047416849084900491C4160704729
:101EE00041684908490041607047F8B504460D460D
:101EF000002D03D1002010490860F8BD61000F4893
:101F0000006805F01BF9471E384605F095FB0646AC
:101F1000304605F098FB0002094908400949496824
:101F2000074AD2431140084306494860012002494C
:101F3000086000BFE1E7000080F0004200000020E0
:101F400000FFFF0F80070040F0B585B005460C4646
:101F50000027207B01280ED1A168080105F06CFB49
:101F600003908548006805F067FB0290039905F02F
:101F700091F9074634E0207B02280ED1A168480180
:101F800005F05AFB03907C48006805F055FB029071
:101F9000039905F07FF9074622E0207B03280ED144
:101FA000A168880105F048FB03907348006805F0BC
:101FB00043FB0290039905F06DF9074610E0207B82
:101FC00004280DD1A168C80105F036FB03906A48CA
:101FD000006805F031FB0290039905F05BF90746B4
:101FE000384605F045FB0022644B0191009005F056
:101FF00053FB02D20020614902E0384605F038FB6D
:102000000391029005F070FB07468321C90538460D
:1020100005F003F9039005F016FB064668680721F2
:1020200009028843217B090207221202114008435A
:1020300068602E612868012149038843217849039B
:102040000122520311400843286028680F21090229
:102050008843617809020F22120211400843286068
:102060002868012109038843A1780903012212038A
:1020700011400843286028680F2109068843E17849
:1020800009060F2212061140084328602868012122
:1020900009078843217909070122120711400843E3
:1020A000286005B0F0BD10B5426803231B039A43B6
:1020B0000B030324240323401A43426002680123D4
:1020C0001B059A43D218026010BD10B502460120CC
:1020D0002B4B58612B48406803231B0498430B0487
:1020E0000324240423401843264B586010BD012AC2
:1020F00003D183690B43836102E083698B4383616E
:1021000070474268920892008B079B0F1A43426007
:10211000704710B5426830239A430B0130242340A6
:102120001A43426010BD2022115470470184704749
:102130000162704701462420405C70470146888C4C
:1021400070470146486A70470246002053690B42B7
:1021500000D00120704702460020D3690B4200D016
:10216000012070470246002093690B4200D00120F5
:102170007047C16170470000000000200000F03F80
:1021800040000C420060004070B50446A079002871
:1021900002D02068450108E07D21C9000E48006892
:1021A00004F0CCFF2168484305460C480560A0793F
:1021B0000B49C860207948606079886070BD074924
:1021C0000860704705484068704700200549096865
:1021D000002900D00120704700000020001C0040B2
:1021E000008103420082034210B5012002F047FB48
:1021F00010BD10B5AC48FFF7DEFC002002F03FFB3D
:1022000010BD00B587B0002168460173417381732A
:102210000121C173002101744174817403A9272035
:10222000FEF721FF0021684601734173032181738A
:102230000021C17301744174817403A92620FEF743
:1022400012FF002168460175417581750321C17532
:102250003F20069005A99448FFF70AFB0121684634
:102260000171002141718171C1710172417201A935
:102270008D48FFF76DFB00218B48FFF7A8FB03217A
:102280008948FFF7D4FB02218748FFF7ACFB032105
:102290008548FFF7D8FB00218348FFF702FC8248FE
:1022A000FFF783FC07B000BD10B504467F48201837
:1022B00010D0FF38A13804D04D21C900401A1BD1DD
:1022C00011E04C217848FFF721FC99217648FFF76F
:1022D00023FC12E040217448FFF718FC802172486B
:1022E000FFF71AFC09E060216F48FFF70FFCC021DF
:1022F0006D48FFF711FC00E000BF00BFFFF781FF52
:1023000010BD6B4A1278002A0CD1694A127A9200E9
:10231000684B9A580260664A127A9200664B9A5845
:102320000A6048E0624A1278012A0CD1604A127AA7
:102330009200624B9A5802605D4A127A9200604B9A
:102340009A580A6037E05A4A1278042A0CD1584A3F
:10235000127A92005B4B9A580260554A127A9200A8
:10236000594B9A580A6026E0514A1278032A16D12E
:10237000564A12781C235A43554BD2184C4B1B7AA1
:102380009B00D2580260514A12781C235A43514B89
:10239000D218474B1B7A9B00D2580A600BE0444A84
:1023A000127A92004C4B9A580260414A127A92007B
:1023B0004A4B9A580A6070471CB549480078C007D4
:1023C000C00F23D03A48406800281FD13848007A0F
:1023D000401C3749087201A96846FFF792FF01982F
:1023E000002802D00098002808D13D480078400815
:1023F00040003B490870FFF7FCFE07E00098FFF73C
:1024000053FF2B4901984860FFF7EEFE1CBD1CB539
:10241000044600200190009032490860304800785E
:1024200040084000401C2E490870214804700020DC
:102430001F49087201A96846FFF763FF0098FFF77C
:1024400033FF1B4901984860FFF7CEFE1CBD10B555
:1024500017484068002804D015484068401E1449B9
:10246000486013484068002810D01E480068401C8F
:102470001C49086008460068282803D2012002F0A1
:10248000F2F910E0002002F0EEF90CE0002015490E
:10249000086013480078C007C00F04D0FFF7A9FEFA
:1024A000002002F0E0F910BD0024004001F8FFFF19
:1024B00098010020BC790000CC790000DC79000094
:1024C000EC790000647B0000747B00003400002085
:1024D000147A0000BC7A0000FC790000087A000041
:1024E000080000200400002010B50446002C03D191
:1024F0001320FEF73AFE02E01320FEF722FE10BD85
:1025000000B585B0002168460171417102218171D9
:102510000021C17101724172817201A91120FEF77F
:10252000A2FD002168460173417381730321C173C9
:102530001020049003A9FA48FFF796FB0021684693
:102540000170012141706946F548FFF7FDFB02214A
:10255000F348FFF727FC0321F148FFF72FFC022186
:10256000EF48FFF74FFC0121ED48FFF757FC002132
:10257000EB48FFF766FCEB480168E948FFF78AFC87
:10258000E949E748FFF789FC01220421E448FFF705
:102590004EFC012211460C20FFF706F9E048FFF738
:1025A00099FC05B000BD10B504462146DC48FFF794
:1025B00074FC10BD10B5DC48FFF7F5FFFFF7A0FF76
:1025C00010BD1CB500216846017041708170C1705A
:1025D00001714171817169461120FEF744FD0021AE
:1025E0001120FEF789FD1CBD10B5CD48FFF778FC22
:1025F000FFF7E7FF10BDCD490968CD4A914200D2EF
:102600007047CC4A016891421ED900210160F7222F
:1026100012014168914203D24168FF312D3141607E
:10262000F7221201416891420ED311464160817A2E
:1026300002229143891C8172417A032904DA417A8A
:10264000491C4172B849416000BFD9E710B5044642
:10265000A07AC007C00F45D0B748216804F06EFDCE
:10266000B6490860002020602072A07A400840002F
:10267000A0720020AD490860B1480068002834D13C
:10268000AE480168AF480068C830814206D8AD48FE
:102690000168AA480068C830814203D9FF20F5309C
:1026A000A7490860A5480168A648006804F082F8B8
:1026B0006060F72109016068884216D39F4800686E
:1026C000642812D2A07A02218843801CA072607A0A
:1026D00003280ADA607A401C607200202060924869
:1026E000606002E02046FFF786FF607A032806DB81
:1026F0009548007840084000401C9349087010BD80
:1027000010B503F035F900281BD090480079012856
:102710000ED18F480078401C8D490870084600781B
:102720000A2805DD00218B480171002088490870C6
:1027300089480078002804DD87480078401E8649D3
:10274000087010BD85480078002800D07047844884
:10275000007A401C824908720846007A182806D17F
:1027600001218048017000207D49087206E07C4804
:10277000007A182802DD00207949087200BFE5E7D9
:10278000774800687849884208D27848007800285D
:1027900004D173480068401C71490860704710B547
:1027A00004215F48FFF78BFB002803D004215C481D
:1027B000FFF78EFB10BDFF20F5306D4908605A48C9
:1027C0006749486070470146012906D0022907D0B1
:1027D000032908D004290CD108E0664A10780AE0E1
:1027E000654A107807E0654A107804E0644A10787A
:1027F00001E0002000BF00BF624A1278D207D20F6A
:1028000000D10020704710B504460A2060434D49AE
:1028100008605D480078012806D002280AD0032805
:102820000ED0042818D111E046480068001D454923
:10283000086012E0434800680C30424908600CE030
:102840004048006814303F49086006E03D48006891
:1028500017303C49086000E000BF00BF4B480068EB
:1028600038490968884207D03648006847490860F7
:10287000FF20F5303249086042480078C007C00F99
:1028800004D031480078C007C00F02D000202D4985
:1028900008603F480078002803D13E4800780028AF
:1028A0000AD03D480078002802D12649086003E09C
:1028B0002F4800682349086022480068002806D095
:1028C0001E20254908700120FFF70EFE05E0224872
:1028D0000078002801D1FFF707FE1A480068002899
:1028E0005ED02E48007900285AD11748007880071A
:1028F000C00F0DD11448007802218843801C124972
:102900000870FFF757FE0020154908600749086066
:102910001348FFF79BFE12494868FFF744FE4CE05E
:10292000004000400C000020EE0200002C000020BF
:10293000DC05000088130000804F120020000020FA
:10294000400100201800002010000020C0350022A7
:102950001C000020C03500221D000020C0350022D0
:10296000A4010020C0350022FFFF0000C035002276
:1029700030000020C3000020C4000020C50000205B
:10298000C6000020B1000020350000201400002007
:10299000080100200901002011010020C03500229B
:1029A000444800780221884342490870FFF71CFE22
:1029B00041484249486003F0AEFFFFF7A1FE40489E
:1029C0000078002803D13F480078002823D03E48F3
:1029D000007800281FDD3C48007802281BDA3B48BD
:1029E000006896383A490968884206D8384801682C
:1029F000364800689630814207D92E480078400852
:102A00004000401C2B49087005E02A480078400827
:102A100040002849087010BD00B52E48007803001A
:102A200004F0AFFF05040D161F20290001202A49DC
:102A3000087008460078401E284908701CE00220F3
:102A40002549087008460078401E2449087013E0A4
:102A500003202149087008460078401E1F4908706D
:102A60000AE000BF04201C49087008460078401E98
:102A70001A49087000E000BF00BF00BD00B518484B
:102A80000078C007C00F04D016480078C007C00FF8
:102A900000D100BDFFF7C0FF00BFFAE710B5FFF798
:102AA000EDFF0D480078FFF78EFE04462046FFF745
:102AB000AAFE10BD10000020EE020000A4010020BC
:102AC0000801002009010020110100203000002031
:102AD00020000020C8000020350000203C0000201D
:102AE000B3000020B100002010B501F01CFF01F080
:102AF0001AFF01F018FF01F016FF01F014FF01F0BA
:102B000012FF01F010FF01F00EFF10BD70B50020A4
:102B100001F0E5FEFFF7E8FF0325002416E0FFF7CC
:102B2000E3FF002001F0CFFE0120A040284203D0A7
:102B3000012001F0E0FE02E0002001F0DCFEFFF7E2
:102B4000D3FF012001F0BFFE601CC4B2082CE6DBFD
:102B5000FFF7CAFF012001F0C2FEFFF7C5FF00200A
:102B600001F0BDFE4025002416E0FFF7BDFF002068
:102B700001F0A9FE0120A040284203D0012001F06D
:102B8000BAFE02E0002001F0B6FEFFF7ADFF012023
:102B900001F099FE601CC4B2082CE6DBFFF7A4FF2D
:102BA000012001F09CFEFFF79FFF002001F097FE3F
:102BB000C025002416E0FFF797FF002001F083FEF8
:102BC0000120A040284203D0012001F094FE02E041
:102BD000002001F090FEFFF787FF012001F073FE57
:102BE000601CC4B2082CE6DB00251EE0002418E0BF
:102BF000FFF77AFF002001F066FE3648405D0121B4
:102C0000A140084203D0012001F075FE02E000203F
:102C100001F071FEFFF768FF012001F054FE601C17
:102C2000C4B2082CE4DB681CC5B20E2DDEDBFFF756
:102C30005BFF012001F053FEFFF756FF002001F07B
:102C40004EFEFFF751FF244800784007400F8821CF
:102C500008430546002416E0FFF746FF002001F078
:102C600032FE0120A040284203D0012001F043FEA3
:102C700002E0002001F03FFEFFF736FF012001F0E7
:102C800022FE601CC4B2082CE6DBFFF72DFF0120FA
:102C900001F025FE70BD10B510480078002806D060
:102CA000012808D002280AD003280DD10BE0022009
:102CB0000949087009E007200749087005E0072066
:102CC0000549087001E000E000BF00BFFFF71EFFEC
:102CD00010BD0000E0010020B60000203D000020F3
:102CE00070B5FE48006804F0AEFCFD490860FD497F
:102CF000FA48006804F091FA0446204604F0A3FC68
:102D000005460A21284604F019FAF748017070BDFB
:102D1000FEB5F24800680190019804F0A9FC044651
:102D20000022F24B04F0A8FB064604F0DDFC019003
:102D3000EF48006804F080FC00900099019804F0CE
:102D4000A9FA0190019804F093FC04460022E74B95
:102D500004F0B6FC01D2E7480190019804F073FC3E
:102D60006421081AE4490870FEBD70B50026E348E6
:102D70000078C007C00F00D170BDE1480078C007DF
:102D8000C00F00D0F8E7DF480078002800D1F3E753
:102D9000DD480078C006C00F00D0EDE702F0E8FD86
:102DA000002800D1E8E7D9480068401CD7490860EE
:102DB00008460068E1210901884200D2DCE70020D2
:102DC000D2490860D2480078012806D002281AD0DB
:102DD00003282DD0042855D13FE0CE4800780300C9
:102DE00004F0CFFD050407090B0C0E007F26F60545
:102DF00007E0C94E05E0C94E03E000BFC84E00E041
:102E000000BF00BF3FE0C3480078030004F0B9FDF5
:102E1000050406080A0B0D00C24E07E0BF4E05E090
:102E2000BF4E03E000BFC04E00E000BF00BF2AE07D
:102E3000B8480078030004F0A4FD050406080A0B56
:102E40000D00B54E07E0B64E05E0B74E03E000BFFB
:102E5000B64E00E000BF00BF15E0AE4800780300AA
:102E600004F08FFD050406080A0B0D00AB4E07E0C9
:102E7000AD4E05E0AD4E03E000BFAD4E00E000BF3B
:102E800000BF00E000BF00BF31469448006804F076
:102E90006BF9924908600846006804F0E9FB0446B3
:102EA0000022A44B04F00CFC02D2A3488B4908601A
:102EB000FFF716FFFFF72CFF00BF5DE7F0B585B009
:102EC00000270026002523E00C22232189029B48AD
:102ED000FDF796F90026002406E0601C8000974963
:102EE00008588619601CC4B2092CF6DB93480068A8
:102EF000934988420AD19148C06A4908884205D15D
:102F00008E48806AB04201D1012703E0681CC5B237
:102F1000052DD9DB00BF002F19D1894887490860EA
:102F2000002048608860C860012008610020486176
:102F30008861C86108624862012088628048C04395
:102F4000C8620123302223208002FDF746F97D4824
:102F50007D49086087208001654908607749486895
:102F600004F06AFB5D4908600846006804F080FBD5
:102F70000022764B0191009004F0E6FA0391029052
:102F800004F0B2FB554908606C49886804F054FBB2
:102F9000039052480168039804F0E6F84F4908602E
:102FA000FFF79EFEFFF7B4FE6448C068012807D112
:102FB0006748007840084000401C6549087005E0FB
:102FC0006348007840084000614908705B48006928
:102FD000012806D0022805D0032804D0042808D1EF
:102FE00002E000BF00BF00BF5448007C48490870A1
:102FF00003E001204649087000BF00BF4448007844
:10300000401E544908704D484069012807D13B488B
:10301000007804218843001D3849087005E03748CE
:10302000007804218843354908704448406A4A4979
:103030000860084600684949884202D9084646495E
:1030400008603E48006A052804D83C48008C444982
:10305000087002E002204249087005B0F0BD00216E
:10306000002200BF08E0002201E000BF521C6923DB
:10307000DB009A42F9D3491C8142F4D3704770B502
:103080000025002437480078022801DA002070BDAE
:1030900002F06EFC002808D033480078002804D0E5
:1030A00031480078401E304908702F4800780028C9
:1030B00001DD0020EBE70025204840680A49097837
:1030C000884204D0084800781C49486001251B4804
:1030D00080680349096888424DD047E04C000020D1
:1030E0005C000020000020415000002000005940FA
:1030F000480000200000C84258000020B100002015
:103100001000002074000020B200002054000020B5
:1031100035000020C8000020CDCC8C3F3333933FD6
:103120009A99993F6666863F0000A03F6666A63F73
:10313000CDCCAC3FE0FFEF4000FF7F47F001002027
:10314000AAAAAAAAB01C0000440000200000244043
:10315000B30000203C000020B800002030560100E1
:103160003400002098000020B00000205C48006877
:103170005C49886001255C480078C007C00F594948
:10318000C968884206D058480078C007C00F554922
:10319000C86002255348006954490978884204D020
:1031A000524800784F49086103255148007840078C
:1031B000C00F4C494969884206D04D480078400705
:1031C000C00F48494861042549480078C007C00F2E
:1031D00044498969884206D045480078C007C00F35
:1031E00040498861052543480078002807D13D48BB
:1031F000C069012803D100203A49C86106253D482D
:103200000078002807D03748C069002803D1012082
:103210003449C86107253348006A3749097888422C
:1032200004D0354800782F4908620825002033492A
:10323000086000240AE0601C80002A4908582F49D1
:10324000096840182D490860601CC4B2092CF2DBE3
:103250002448806A29490968884204D027480068C0
:10326000204988620A25284611E7F8B50027FFF7AC
:1032700006FF0746002F32D021481A49086040084F
:10328000C862002528E0012330221649232080024D
:10329000FCF7A3FF0520FFF7E2FE0C2223218902A1
:1032A0001848FCF7ADFF01F0D5FA002600240BE02A
:1032B000A00014490858A1000A4A5158884201D078
:1032C000012603E0601CC4B20C2CF1DB00BF002E11
:1032D00000D103E0681CC5B2052DD4DB00BFF8BDEA
:1032E0005C000020F0010020B30000203500002029
:1032F000B1000020700000203400002040000020B9
:10330000AAAAAAAAB0010020FA490968FF22E0325D
:1033100091420AD8F7490968FF22B832914204D392
:1033200008200021F44A117072E0F2490968F34A5A
:1033300091420AD8EF490968F04A283A914204D3E9
:1033400001200021EC4A117062E0EA490968A322D9
:10335000D20091420AD8E74909684F2212019142EE
:1033600004D304200021E44A117051E0E1490968C6
:10337000E34A91420AD8DF490968E14A283A914272
:1033800004D306200021DC4A117041E0D9490968C4
:10339000DB4A713291420AD8D6490968D84A493283
:1033A000914204D303200021D34A117030E0D14967
:1033B0000968D44A91420AD8CE490968D14A283AC4
:1033C000914204D307200021CB4A117020E0C94963
:1033D0000968CD4A91420AD8C6490968CA4A283ABA
:1033E000914204D305200021C34A117010E0C14965
:1033F0000968C64A91420AD8BE490968C34A283AB0
:10340000914204D302200021BB4A117000E0002049
:10341000704710B5BE480078802188438030BC4991
:1034200008700020BB490870BB4800784008400085
:10343000B94908700120B94908700020B8490870DE
:10344000B848007804218843B64908700020B6497E
:103450000860B6490860B6490860B64908600220AD
:10346000B5490870FFF73CFCFFF752FC002002F062
:1034700018FC10BD10B5B1480078002810D000200D
:10348000AE4908700220FEF7C2FF01F006FCAC480E
:103490000078032802D10020A9490870012010BD3E
:1034A000A7480078032809D10020A5490870022008
:1034B000FEF7ADFF01F0F1FB0120F0E7994800783D
:1034C0004006C00F0CD097480078402188439549AA
:1034D00008700220FEF79BFF01F0DFFB0120DEE712
:1034E0000020DCE710B59748007800280CD09648FB
:1034F0000078012807D194480078401C9249087050
:103500000220FEF784FF10BD86480078C007C00F78
:1035100000D1F8E7FFF7AEFF012800D1F3E78148BB
:103520000078042188437F4909784907C90F01229F
:10353000514089000422114008437A490870022052
:1035400082490870FEF763FF764800784007C00F95
:1035500004D00121062002F0F1FB03E00021062047
:1035600002F0ECFB00BFCEE7F8B500207849087008
:103570006C480078C007C00F03D07048007800285E
:1035800000D0F8BD0220FEF742FF7249674800688C
:1035900004F0C6F80ED26548006804F069F80446E5
:1035A00000226D4B03F0B6FE064604F09DF85F491D
:1035B000086002E069485D490860FFF791FBFFF78A
:1035C000A7FB00BFDDE710B556480078C007C00F65
:1035D00000D010BD62480078012800D1F9E7012031
:1035E0005F4908705749087001F017FF00BFF0E706
:1035F00010B55448007800280CD0534800780228B1
:1036000007D151480078401C4F4908700220FEF74E
:10361000FEFE10BD43480078C007C00F00D1F8E798
:10362000FFF728FF012800D1F3E700BFF1E710B54D
:103630000020474908704348007800280CD04248D1
:103640000078022807D140480078401C3E490870A5
:103650000220FEF7DCFE10BD38480078002803D0B9
:1036600005203B490870F6E72E480078C007C00FD8
:1036700000D1F0E700202D490860FFF731FBFFF78C
:1036800047FB0220FEF7C3FE00BFE4E710B52D485C
:10369000007800280CD02C480078032807D12A484D
:1036A0000078401C284908700220FEF7B0FE10BDCB
:1036B000FFF7E0FE012800D1F9E71A4800788006FC
:1036C000C00F00D0F3E717480078C007C00F00D143
:1036D000EDE70220FEF79BFE19480078401C1849D0
:1036E000087008460078032801DD0020087000BF3C
:1036F000DDE7000078000020C90000207B03000007
:10370000CC070000D7090000350B0000F30C0000C7
:10371000B2000020C1000020B300002035000020CE
:103720003C000020B1000020B80000204C00002028
:10373000D800002038000020340000207000002055
:103740003D0000200801002010010020B0000020F2
:1037500086000020009B7F470000594000FF7F4704
:103760000901002010B50320F7490870F7480078D8
:10377000002802D00520087010BDF54800788006AA
:10378000C00F07D1F2480078202188432030F0494B
:1037900008700DE0EF480078401CEE4908700846BC
:1037A0000078052801DD002008700220EA49087031
:1037B0000320FEF72CFE00BFDEE710B5E7480078D7
:1037C00040084000401CE54908700020DF490870AF
:1037D000E349087001F061FA0020FEF718FE0121AC
:1037E000084602F0ABFA2A20FDF7ABFC10BD10B57D
:1037F000DA48007840084000D84908700020D349D2
:10380000087001F0F2FC0120FEF701FE002101200A
:1038100002F094FA0021022002F0C0FA0020D149FF
:103820000870CE48007820218843CC4908700021D8
:10383000072002F083FA0020CB490860CB480078CB
:10384000C007C00F07D00120C9490870084600789A
:10385000401EC84908700020C7490860C749087061
:10386000C7480078032802D10120C54908702A20E2
:10387000FDF77BFC10BD10B5C248007800280CD0C5
:10388000C1480078042807D1BF480078401CBE49D1
:1038900008700220FEF7BBFD10BDB048007880061E
:1038A000C00F00D0F8E7B148007808218843AF493D
:1038B0000870AA480078C007C00F42D0A34800781B
:1038C000002804D001282DD0022838D130E0A348A8
:1038D00000784006C00F0CD0A9480078022808D113
:1038E0009E480078402188439C49087001F0D5F932
:1038F00014E0A3480078032805D10020A0490870EF
:1039000001F0CBF90AE001209049087006209F4998
:10391000087001F06AFC02208F4908700220FEF74F
:1039200076FD0DE0002089490870FFF760FF07E091
:103930000020864908700220FEF769FD00E000BF04
:1039400001E0FFF73AFF00BFA6E710B58D48007809
:1039500000280CD08C480078052807D18A480078C8
:10396000401C894908700220FEF751FD10BDFFF789
:1039700081FD012800D1F9E7784800788006C00F62
:1039800000D0F3E779480078C006C00F06D077482A
:1039900000781021884375490870E7E76F48007880
:1039A000C007C00F00D1E1E70220FEF730FD7148EB
:1039B0000078401C6F49087008460078062801DB33
:1039C0000020087072486B490978405C68490870AB
:1039D00066480078400840006449087002205E494B
:1039E000087000BFC2E710B5022057490870574859
:1039F0000078002802D00220087010BD65480078C9
:103A0000002803D101206349087002E000206149C9
:103A100008700420FEF7FBFC00BFEEE710B5594824
:103A2000007800280CD058480078062807D156485E
:103A30000078401C544908700220FEF7E8FC10BDD5
:103A400046480078C007C00F00D1F8E7FFF712FD25
:103A5000012800D1F3E745480078C007C00F0CD11A
:103A60004248007840084000401C40490870FFF779
:103A700005F802203849087008E03C480078400802
:103A800040003A4908700220334908700220FEF7CE
:103A9000BEFC00BFD3E710B508202B4908702B48A7
:103AA0000078002802D00520087010BD03F0B2F99C
:103AB00000BFFAE710B53348007800280CD0324830
:103AC0000078072807D130480078401C2E4908703C
:103AD0000220FEF79CFC10BD20480078C007C00FF4
:103AE00000D1F8E7FFF7C6FC012800D1F3E700BFDB
:103AF000F1E710B500201449087018480078C00795
:103B0000C00F03D011480078002800D010BD134822
:103B1000007820218843114909788906C90F0122BC
:103B2000514049012022114008430C4908700220ED
:103B3000FEF76DFC094800788006C00F2CD00121EB
:103B4000072002F0FBF82BE0860000207000002028
:103B5000B500002034000020B0000020B10000209B
:103B60009000002099000020D8000020B300002021
:103B7000350000203C00002038000020C800002054
:103B80003D000020080100201001002071000020ED
:103B900060000020C20000200021072002F0CEF8C3
:103BA00000BFB3E710B50446C8480078C007C00F8F
:103BB00000D010BDC548007840084000401CC349F3
:103BC00008700020C2490870230003F0DAFE095F84
:103BD000560612153C5F595C5F00BC4800784008EF
:103BE0004000BA4908700220B9490870FFF7ADFEDD
:103BF0004DE0FFF74BFD4AE0B44800784008400034
:103C0000B24908700420B2490870B2480078002810
:103C10000AD0B1480078072814D10820AE490870AE
:103C20000220FEF7F4FB0DE0AC480078002809D034
:103C3000A9480078082805DA0820A749087002205A
:103C4000FEF7E5FB23E0A1480078400840009F49CB
:103C5000087005209E490870A048007800280BD005
:103C60009D480078022807D19B480078401C9A495B
:103C700008700220FEF7CBFB09E0FFF7FCFD06E031
:103C8000FFF730FC03E0FFF7C9FE00E000BF00BF14
:103C900000BF8EE710B50446914800788006C00F3B
:103CA0007ED190480068042807D12046FFF77AFFAC
:103CB0008C480068401C8B4908608A480068FA28D4
:103CC00008D1052C06D1FFF7B2FC86480068401CDD
:103CD0008449086083480068FA2826D1032C24D13F
:103CE000FFF740FD80480078030003F04AFE060419
:103CF000080C1014181C82207A49086014E06E2009
:103D00007849086010E05A20764908600CE04620A7
:103D10007449086008E032207249086004E01E20FF
:103D20007049086000E000BF00BF6E480068FA28D4
:103D300008D1022C06D1FFF756FE6A480068401CE5
:103D40006849086067480068FA2808D1082C06D13D
:103D5000FFF7A1FE63480068401C624908606148A3
:103D600000680146FF39F53908D1012C06D1FFF76B
:103D700050FB5C480068401C5A490860594800687C
:103D8000962808D1062C06D1FFF71DFC554800687F
:103D9000401C5449086053480068FF21913100E0FD
:103DA00011E088420FD3072C0DD132214D48006815
:103DB00003F0C4F9002906D1FFF7D6FB4948006893
:103DC000401C4849086047480068962808D1042CE0
:103DD00006D1FFF78EFE43480068401C4149086049
:103DE00010BD10B50446042C04D0052C05D0072CBA
:103DF00009D105E0FFF75EFE06E0FFF7F9FB03E0FF
:103E0000FFF770FB00E000BF00BF10BD10B501F070
:103E100058FE002809D0334800683449884204D24B
:103E200030480068401C2F49086001F0A1FD0028BF
:103E30001FD02B480078C007C00F0CD000202C49A1
:103E400008602C480078FF2813DA2A480078401CC4
:103E5000284908700DE000202649087024480068B1
:103E600022490F31884204D221480068401C204971
:103E7000086010BD10B5FFF747FA04461E480078E9
:103E800001281ADD002C15D10020164908600F48C2
:103E90000078400840000D490870114800788006FD
:103EA000C00F03D10A480078FFF79BFF00200849A4
:103EB000087002E02046FFF7EDFEFFF7A7FF0F486E
:103EC0000078102188430D49087010BD660000205D
:103ED00086000020090100201001002008010020B8
:103EE000B10000206800002034000020F0FF000036
:103EF000940000209000002098000020B3000020D3
:103F000010B501F035FD00282DD0FA480078FF28C3
:103F100004DAF8480078401CF6490870F648007842
:103F2000FF2804DAF4480078401CF3490870F3488D
:103F30000078C007C00F09D0F1480078FF2808DAE0
:103F4000EF480078401CEE49087002E00020EC4980
:103F50000870E9480078012805D1EA48007800286F
:103F600001D101F042F910BD10B501F001FD0028AA
:103F700000D110BDE4480078002807D0E24800785E
:103F8000022803D0E048007804280ED10220FEF772
:103F90003EFA002404E0FF20DC490855601CC4B24E
:103FA0000E2CF8DB00F079FE0AE0002404E000208B
:103FB000D6490855601CC4B20E2CF8DB01F015F987
:103FC000FEF769FED0480078FF2804DACE48007872
:103FD000401CCD490870CC480078062814D1CC4844
:103FE000007880218843CA490870C4480078400896
:103FF0004000C249087001F0F8F80020C549087077
:10400000BF490870C449086000BFB2E720B5BB488B
:1040100000784006C00F01D0204620BDB748007888
:10402000C007C00F72D0BB48007800286ED1BB48D3
:1040300000780328F6D0BA480078C007C00F0CD02B
:10404000B34800788007C00F0ED0B0480078042134
:104050008843001DAD49087006E0AC480078042193
:104060008843001DA9490870AE480078012806D091
:1040700002280CD0032812D0042820D117E0A3482E
:10408000807840084000401CA04988701FE09F488D
:10409000807802218843801C9C49887017E09B48E7
:1040A000807804218843001D984988700FE0974864
:1040B000007940084000401C9449087107E093488B
:1040C000807840084000401C9049887000BF00BFC5
:1040D00095480078C007C00F06D08C4800780221B0
:1040E0008843801C894908708848007A400840004D
:1040F000401C8649087289480078002807D00128AA
:104100000DD0022813D003281AD118E0B3E07F485D
:10411000007902218843801C7C49087111E07B48AA
:10412000007904218843001D7849087109E0774827
:10413000807940084000401C7449887101E000E02B
:1041400000BF00BF794800780007C00F0CD070484E
:1041500000788007C00F0ED06C48007A0421884395
:10416000001D6A49087206E06848007A0421884305
:10417000001D664908726E48006803F05DFA054646
:104180006C480168284603F0D5FA07D25F48007AE8
:1041900002218843801C5D49087219E06648006866
:1041A00003F04AFA054663480168284603F0C2FA5C
:1041B00007D85648807A40084000401C534988720E
:1041C00006E05248007B40084000401C4F490873FD
:1041D000564800780007C00F13D04D48007880077C
:1041E000C00F1CD04948807902218843801C474970
:1041F00088710846807A02218843801C434988726E
:104200000DE04248807902218843801C3F49887133
:104210000846807A02218843801C3C4988723B48CA
:10422000007B02218843801C3849087308460078C7
:1042300040084000401C0870304800788006C00FDD
:1042400006D00846807A04218843001D2F498872D1
:104250002A4800784007C00F07D02C4880790221F7
:104260008843801C2949887105E02848807902210B
:104270008843264988712C4800784007C00F07D032
:104280002248007B04218843001D2049087305E073
:104290001E48007B042188431C49087300BFBCE60C
:1042A00010B5FFF7B3FEFEF7F6FC10BD10B5002405
:1042B00004E0002015490855601CC4B20E2CF8DB40
:1042C00010480078002802D001F0B1F910BD0A486A
:1042D0000078012832DA002404E0FF200B49085559
:1042E000601CC4B20E2CF8DBFEF7D5FC01F005F81B
:1042F000ECE700008700002098000020B1000020BB
:104300009900002008010020C1000020E0010020E9
:10431000B200002070000020D80000203D000020E6
:104320001000002035000020B3000020B400002061
:10433000440000204C00002048000020264800785F
:10434000C00902D0FFF710FEC0E7FFF7A9FF00BFCA
:10435000BCE710B521480078012800DC10BD1E48DC
:104360000078C00900D0F9E701F0ABFB002800D1CC
:10437000F4E71B480078401C19490870084600788B
:10438000052814DB0020087016480078C007C00F0D
:1043900008D015480078032804D012480078400659
:1043A000C00F02D000F021FF01E000F076FC00BF5A
:1043B000D4E710B500200D490870084908700120A5
:1043C00000F0B3FA10BD10B5FFF79AFDFFF76EFFCE
:1043D000FFF7BFFF10BD0000B200002098000020D2
:1043E0006C000020B10000203D000020870000206C
:1043F000212149060868002803D0F84901229207C4
:1044000011600021C943F64A9160002802D00021C2
:1044100012061160704700B585B00021684601732F
:1044200041738173C17301744174817403A91120B4
:10443000FCF719FE03A91220FCF715FE03A91320AF
:10444000FCF711FE03A91820FCF70DFE03A90120BB
:10445000FCF709FE03A92A20FCF705FE03A9252085
:10446000FCF701FE03A91C20FCF7FDFD03A91D209C
:10447000FCF7F9FD03A91920FCF7F5FD03A91A20A3
:10448000FCF7F1FD03A91B20FCF7EDFD03A91420A7
:10449000FCF7E9FD1420FCF754FE03A91E20FCF7ED
:1044A000E2FD1E20FCF74DFE03A92920FCF7DBFDF1
:1044B0002920FCF746FE03A90820FCF7D4FD0820BC
:1044C000FCF73FFE03A90920FCF7CDFD0920FCF70E
:1044D00038FE03A90A20FCF7C6FD0A20FCF731FECE
:1044E00003A90B20FCF7BFFD0B20FCF72AFE03A954
:1044F0000D20FCF7B8FD0D20FCF723FE00216846D7
:1045000001710121417100218171C17101724172FA
:10451000817201A91020FCF7A6FD01A91520FCF766
:10452000A2FD01A91620FCF79EFD01A91720FCF7AA
:104530009AFD01A90020FCF796FD01A92420FCF7B3
:1045400092FD01A90E20FCF78EFD01216846017045
:104550000021417069461020FDF7A4F805B000BDA8
:104560001CB5A048A04908607D20000100900121F1
:1045700068460171417100218171FDF705FE01203E
:104580009A49086000209849086001220021102003
:10459000FDF70AF91CBD1CB5002168460170817049
:1045A000C170012001906846417069469048FDF74E
:1045B0005FF902218E48FDF70AFA00218C48FDF7C9
:1045C00070FA192189018A48FDF7A0FA01221146E3
:1045D0008748FDF75CFA012211460820FDF7E4F850
:1045E0008348FDF7E2FA1CBD1CB500216846017046
:1045F0008170C170012001906846417069467D4814
:10460000FDF736F902217B48FDF7E1F900217948F1
:10461000FDF747FA7D21C9017648FDF777FA0122B7
:1046200011467448FDF733FA012211460A20FDF7BE
:10463000BBF87048FDF7B9FA1CBD00B587B0002182
:10464000684601750221817500214175C1750176A9
:1046500005A90120FCF707FD00216846017502212C
:1046600081750121417500214176817605A90020DF
:10467000FCF7F9FC4B20C00103900321684601744C
:104680000021C171017201714171817101A95A4802
:10469000FDF75AFC00215848FDF733FD002156482C
:1046A000FDF737FD012211045348FDF720FD0122DB
:1046B00011461820FDF778F80020504908600120C5
:1046C0004E494031086007B000BD00B587B00021F9
:1046D000684601754175012181750021C17501216F
:1046E000017600214176817605A92520FCF7BBFCE7
:1046F0000021684601750121817541750021C17550
:104700000121017600214176817605A92420FCF75C
:10471000AAFC00216846017141718171C171017269
:104720004B20C001039001216846017401A934485F
:10473000FDF70AFC00213248FDF7E3FC0021304878
:10474000FDF7E7FC012211042D48FDF7D0FC012202
:1047500011461720FDF728F801202A490860294949
:104760004031086007B000BD10B5FEF7A7FBFFF7AA
:1047700012FFFFF739FFFFF7A8FFFFF75EFF02F018
:10478000F5F801F0ADF8FFF714FE00F0EBF802F0D9
:104790001FFB00F05FF800F06DFE1B48007802215F
:1047A0008843801C184908700120184908702A2085
:1047B000174908703E2017490870542016490870A0
:1047C0006420164908700220FDF721FE10BDFFF796
:1047D0000FFEFFF720FEFFF7C7FF39E09669AA55E5
:1047E0004000004051E5CC1A001D0040008103420A
:1047F00000200040002800400064004000800C427F
:104800000060004000000C42B10000203D0000208C
:10481000C3000020C4000020C5000020C600002006
:1048200000F018F801F0FDF8FFF7CDFD02F0A2F955
:10483000FDF7C2FDFEF732F9FFF71CFB00F063F94C
:1048400000F012FB00F085FE02F07CFBFEF70DFD90
:10485000E6E700003F484049086000203F49C86043
:104860003D490860704710B50446012C03D127204C
:10487000FCF767FC02E02720FCF777FC10BD10B5C1
:104880000446012C03D12720FCF75BFC02E0272023
:10489000FCF76BFC10BD10B50446012C03D11220AF
:1048A000FCF74FFC02E01220FCF75FFC10BD10B5D6
:1048B0000446012C03D11120FCF743FC02E0112037
:1048C000FCF753FC10BD10B50446012C03D11A208F
:1048D000FCF737FC02E01A20FCF747FC10BD10B5CE
:1048E0000446012C03D11920FCF72BFC02E019200F
:1048F000FCF73BFC10BD10B50446012C03D11B2076
:10490000FCF71FFC02E01B20FCF72FFC10BD7047DA
:1049100010B51520FCF7DAFB002801D1002400E0D7
:104920000124204610BD00BF704710B50446012C7D
:1049300003D11820FCF705FC02E01820FCF715FC59
:1049400010BD10B501210846FBF78DFE012004497A
:10495000086010BD51E5CC1A001D0040001C00404D
:1049600000000E420020FA490870FA4908707047AA
:1049700010B5F948007800280AD0F84800780228D5
:1049800005D1F74909784907C80FFFF784FF10BD23
:10499000F3480078C007C00F06D0F14909784907ED
:1049A000C80FFFF778FF02E00020FFF774FF00BF99
:1049B000EDE710B5EA480078C007C00F0BD1E84812
:1049C000007840218843E64908700020E5490870D6
:1049D000E549086010BDE548007802280BD0E048A2
:1049E000007840218843DE4908700020DD490870C6
:1049F000DD490860EEE7DE480078002809D0D84895
:104A0000007840218843D64908700020D5490870B5
:104A1000E0E700F0ADFF00282AD0D148007840063A
:104A2000C00F13D00020CF490870D24800688721FA
:104A3000090188421CD3CC480068CF49884217D26C
:104A4000C9480068401CC849086011E00020C649F8
:104A50000860C848006887210901884208D2C14817
:104A60000078FF2804DABF480078401CBD49087070
:104A7000BC480078032806DBB94800784021884309
:104A80004030B7490870B8480068032805D3B448D7
:104A9000007840218843B249087000BF9AE710B5FA
:104AA00001F00FF800281BD0B4480078401CB3492F
:104AB000087008460078192812DBB14800780221F6
:104AC0008843AF4909788907C90F0122514049003D
:104AD000022211400843AA4908700020A749087023
:104AE00000F046FF00280DD0A6480078C006C00F91
:104AF00008D0A5480068002804D0A3480068401EDC
:104B0000A149086010BD10B5FFF7C9FFFEF72DF9E8
:104B1000FFF74FFFFFF72CFF10BD012807D1904989
:104B2000097804229143091D8D4A117005E08C49D2
:104B30000978042291438A4A1170704710B50446DF
:104B4000924800780821884390490870012C08D1C8
:104B500083480078A043401C81490870FEF72DFE71
:104B600007E07F480078400840007D490870FEF764
:104B70003EFE10BD10B504460220FDF748FC012C96
:104B800007D1774800782021884320307449087085
:104B900005E073480078202188437149087010BDF2
:104BA00010B504460220FDF732FC002C04D0012C85
:104BB0000CD0022C25D11EE074480078400840003B
:104BC0007249087000206A4908701BE0002068499B
:104BD00008706E480078C007C00F0BD16B48007892
:104BE00040084000401C69490870FDF747FF02205B
:104BF0006749087006E002205D49087000F0F5FA88
:104C000000E000BF00BF10BD00B56248007803009F
:104C100002F0B7FE06040E18222C364002205E4930
:104C2000087003204870052088700A20C87032E0A0
:104C3000022059490870032048700A2088701E20FD
:104C4000C87028E0022054490870042048700F20E2
:104C500088702320C8701EE003204F490870082088
:104C60004870142088702320C87014E004204A493A
:104C7000087008204870192088702820C8700AE041
:104C80000620454908700C20487023208870322087
:104C9000C87000E000BF00BF00BD10B500242E4862
:104CA0000078002803D13D480078002800D010BDCE
:104CB000FFF7AAFF3848007839490968884201D9C6
:104CC000002418E03448407835490968884201D901
:104CD000012410E03048807831490968884201D9C0
:104CE000022408E02C48C0782D490968884201D97F
:104CF000032400E004242B480078012802D100207E
:104D00002149086028480078844272DA1D480078FA
:104D1000C006C00F64D01C480068002879D1224822
:104D20000078030002F02DFE05040B424A525A009F
:104D30001448007810218843124908704FE0002081
:104D400019490870FF202D300F49086047E0000026
:104D500072000020730000200801002010010020D4
:104D6000B1000020C9000020CC0000203D00002040
:104D70007000002080000020FFFF0000CA0000201B
:104D8000B2000020B500002038000020B300002051
:104D9000B000002034000020D000002009010020D5
:104DA000D8000020C2000020C800002001202A49AD
:104DB0000870FF202D302949086010E002202649A4
:104DC0000870FF202D302549086008E003202249A3
:104DD0000870FF202D302149086000E000BF18E076
:104DE0001F4800781021884310301D49087010E0DA
:104DF000FFE71948007884420BDB1948007810213E
:104E0000884317490870FF202D3014490860124864
:104E1000047014480078002802D000F0E6F919E088
:104E20000D480078030002F0ACFD0504070A0D10E0
:104E3000130000F062FA0CE000F087FA09E000F0DD
:104E4000ACFA06E000F031FA03E000F004FA00E00A
:104E500000BF00BF00BF2AE7C800002038000020C4
:104E6000B500002070000020FEB5A7480078C007FC
:104E7000C00F03D02A20FCF764F902E02A20FCF7D7
:104E800074F9A2480078012800D0FEBD002405E096
:104E90009F48005D9F490855601CC4B2282CF7D379
:104EA00000209A49087001209B49086000250024D1
:104EB00004E09848005D4519601CC4B21E2CF8DB64
:104EC0009448877F38029349C97F08430746AF4219
:104ED00029D1904800790190019800028D494979C3
:104EE000084301908B48867930028A49C979084382
:104EF00006468848007A0090009800028549497A61
:104F0000084300908548864200D9064684480078C8
:104F10000A2803DA00208349086001E0814806601E
:104F200008208149086000BFAFE78048007800286A
:104F300011D07F480068002805D07D480068401ED9
:104F40007B4908600AE000207849087079490870B8
:104F50007949086002E014207549086070476A4882
:104F60000078C007C00F16D06F480068002805D031
:104F70006D480068401E6C49086002E008206A49DC
:104F8000086067480078FF280BDA65480078401C05
:104F90006349087005E00820634908600020604903
:104FA0000870704710B55948007800287ED1142049
:104FB0005F49086001205D4908705E48007800285C
:104FC0002DD15E48FDF7B6F851495B4A1268885406
:104FD0005948006800280BD1084657490968405CC9
:104FE00042285BD154480068401C5349086055E092
:104FF00051480068012851D145484F490968405C33
:105000004D2808D14C480068401C4B4908600120DD
:105010004849087042E00020474908603EE04548A2
:10502000007801283AD14548FDF784F842490A68DA
:105030000968491C404B1960354988541846006876
:10504000042815D1084680783D4908600846006864
:1050500000022F49C97808433949086008460068AA
:10506000001D086008460068282801D9282008602B
:1050700031480068042811D32F4800683049096876
:1050800088420BD30120214908702B4800682C4925
:1050900008600020274908702449087026480068E5
:1050A00027490968884211D1002000E00EE022491A
:1050B000086020490870204908601C49087013489E
:1050C0000078012802D100201349086010BD10B5F6
:1050D00001211A48FDF746F8002803D0012117489E
:1050E000FDF739F8012109041448FDF73BF80028C1
:1050F00008D0012109041148FDF72DF8002801D03E
:10510000FFF750FF10BD0000B1000020EC000020B0
:10511000200200204802002040800C42E7030000EB
:10512000D4000020D8000020F4000020DF00002080
:10513000F0000020E0000020E400002000640040B7
:10514000E800002072B6704762B6704770B504463A
:10515000254602E0FFF7E7FB6D1E002DFAD170BD7A
:1051600070B5A3480078002803D11820FBF7E9FFA9
:1051700070BD00209E490870FFF7E4FF1820FBF780
:10518000F4FF1420FFF7E2FF002425E008251FE0CC
:105190009848005D8021084209D01820FBF7D1FF14
:1051A0000420FFF7D3FF1820FBF7DFFF08E01820EB
:1051B000FBF7C7FF1820FBF7D8FF0420FFF7C6FF57
:1051C0008C48005D4006000E8A490855681EC5B22D
:1051D000002DDDDC601CC4B2032CD7DB1820FBF7EC
:1051E000B0FFFFF7B1FF00BFC2E710B50020824952
:1051F00008708249087082490870002408E0002085
:10520000804908550846005D7A490855601CC4B2BB
:10521000032CF4DB012076490870FFF7A1FF10BDD5
:1052200010B575480078774908707548007848705F
:10523000724800788870002405E07248005D6D496E
:105240000855601CC4B2032CF7DB012068490870C4
:10525000FFF786FF10BD10B56B480078002806D018
:1052600001280ED002280DD0032816D114E05A20B0
:105270006149087000206149087080206049087009
:105280000CE000BFB4205C49087000205B49087046
:10529000FF205B49087001E000E000BF00BFFFF79E
:1052A000BFFF04205949087010BD10B5564800785A
:1052B000002806D001280DD002280CD0032814D1D4
:1052C00012E064204C49087000204D4908704B4999
:1052D00008700BE000BFFF204749087000204849D4
:1052E00008704649087001E000E000BF00BFFFF70A
:1052F00097FF03204549087010BD10B5424800785B
:10530000002806D001280DD002280CD0032814D183
:1053100012E064203A490870384908700020364984
:1053200008700BE000BFFF20354908703349087052
:1053300000203149087001E000E000BF00BFFFF726
:105340006FFF00203149087010BD10B52E4800785D
:10535000002806D001280DD002280CD0032814D133
:1053600012E0002024490870254908706420234970
:1053700008700BE000BF00201F490870204908702A
:10538000FF201E49087001E000E000BF00BFFFF7EA
:1053900047FF01201D49087010BD10B51A4800785C
:1053A000002806D001280ED002280DD0032816D1DF
:1053B00014E0642010490870002011490870322060
:1053C0000E4908700CE000BFFF200B490870002058
:1053D0000B49087064200949087001E000E000BF33
:1053E00000BFFFF71DFF02200849087010BD000034
:1053F000F80000200001002003010020040100202B
:1054000005010020FD0000203D000020C800002014
:1054100010B5002000F045FC10BD10B5FD48007827
:1054200040084000401CFB490870FB4800780028F9
:1054300005D1FFF7EDFF0A20F849087005E00F20BD
:10544000F64908700220FCF7E2FF0120F4490870D9
:10545000F44800780A214843F3490860FDF7ABF9A6
:105460000020F2490870F2490870F2490870F249C8
:10547000086010BD70B50025002407E0FFF748FA6A
:10548000002801D1681CC5B2601CC4B2FA2CF5DB3F
:10549000C82D02DD0120E9490870E848007800289D
:1054A00001D0FFF7BAFF70BD10B5E44800780028BE
:1054B00000D110BD00F05CFA00282CD0E048007844
:1054C000022802DAFFF719FF1AE0DD480078042805
:1054D00002DAFFF73AFF13E0D9480078062802DA2B
:1054E000FFF75BFF0CE0D6480078082802DAFFF7E8
:1054F000DCFE05E0D24800780A2801DAFFF7ABFEAF
:10550000CF480078401CCE490870084600780A2829
:1055100001DB0020087000BFCBE710B500F0D4FB22
:1055200010BD10B500F024FA002811D0C048007852
:10553000FF2804DABE480078401CBD490870B7480F
:105540000078002804DDB5480078401EB349087093
:1055500010BD10B5FFF7E5FFB8480078002824D04B
:10556000FFF7A2FFAC48007800285FD000F000FAF7
:1055700000285BD0AA480078012857D100F0A1FB91
:10558000FF2853D0A548007800284FDDA3480078B5
:105590000A284BDCA1490878C10F091849104900B5
:1055A000411A43D1FFF7B9FF40E000F08AFA002822
:1055B0003CD0FFF7ADF9002817D1FFF7A9F9A149B1
:1055C0000978C907C90F884225D19F480078C006CD
:1055D000C00F20D19C4800781021884310309A4990
:1055E00008700220FCF713FF15E0FFF791F99549C9
:1055F0000978C907C90F88420DD193480078C006C1
:10560000C00F08D090480078102188438E49087058
:105610000220FCF7FCFEFFF77BF9C407E40F894882
:1056200000784008400020438649087010BD10B53E
:105630007E480078030002F0A4F90B072223324DC4
:10564000697194A3A4C3EC00002404E0FF207F4907
:105650000855601CC4B20E2CF8DB00F032FA0028AA
:105660000CD075480068322805D273480068401C89
:105670007149086002E001206C49087022E121E1D3
:105680007248807902218843801C704988710846DD
:10569000807A02218843801C6C49887212E16B4831
:1056A000007A02218843801C684908720846007A03
:1056B00004218843001D654908720846807A400825
:1056C0004000401C88720846007B40084000401C97
:1056D0000873F7E05D48007A40084000401C5B49D1
:1056E00008720846007902218843801C57490871D6
:1056F0000846007904218843001D54490871084672
:10570000807940084000401C8871DBE04F48807978
:1057100004218843001D4D498871D3E04B488078AF
:1057200040084000401C49498870084680780221A2
:105730008843801C45498870084680780421884346
:10574000001D424988700846007940084000401C0E
:1057500008710846007804218843001D3B49087001
:10576000B0E03A48007840084000401C37490870D3
:105770000846007802218843801C34490870A1E063
:1057800000BF3248807A04218843001D2F49887267
:105790000846007B04218843001D2C4908730846F5
:1057A000007B02218843801C2849087300F0E0F840
:1057B000002804D01D480078401C1C49087081E076
:1057C0001648007800287BD11A480078052806DBA7
:1057D0001F48007804218843001D1D4908701C489B
:1057E0000078C007C00F37D1194800784007C00FB4
:1057F00032D118480078C007C00F2DD10848007872
:10580000002829D10D49087003490870FDF7EFFF02
:1058100056E056E0B10000200901002011010020EF
:105820000A010020C3000020140100201001002004
:105830001A010020DC0000200C01002008010020DB
:10584000180100201B010020B2000020E001002010
:10585000B5000020100000201C4800788007C00F11
:105860002ED01B480078C007C00F06D01948807A98
:1058700002218843801C1749887215480078400728
:10588000C00F06D01348007A04218843001D114937
:10589000087211480078C007C00F06D00D48007884
:1058A00004218843001D0B4908700C48007800282B
:1058B00006D00848007B04218843001D0549087371
:1058C00000E000BF00BFFDF7E6F910BDB200002008
:1058D000B5000020E0010020100000200A01002097
:1058E0000020814908608149087081490870814918
:1058F00008708149086081490860704710B57A488E
:105900000068401C7849086078480078401C774956
:10591000087008460078142809DB764800780221D0
:105920008843801C734908700020704908706E48D5
:1059300000687D21C900884209D36E48007808219B
:10594000884308306B490870002067490860FCF7FD
:105950007EFDFFF7EAFA6A4800686A49884204D285
:1059600067480068401C6649086000F0DFFF10BD12
:10597000604800784007C00F01D001207047002028
:10598000FCE75C480078102188435A4908700846B3
:1059900000784007C00F12D055480078401C544989
:1059A0000870084600783C2809DB5248007810212E
:1059B000884310304F49087000204D4908707047E7
:1059C0004C480078042188434A490870084600780A
:1059D0000007C00F0CD00846007804218843001D42
:1059E00044490870084600780821884341490870F6
:1059F000704740480078400840003E49087008461B
:105A000000788007C00F0BD008460078400840009F
:105A1000401C087008460078022188433549087008
:105A2000704710B5FFF7E5FFFFF7CAFFFFF7A9FFC3
:105A300035480078012824D134480078002820D146
:105A400033480078C007C00F1BD132488069012855
:105A500014D12F48007840084000401C2C490870A1
:105A600000202D4908702B48C069012803D102206D
:105A70002A49087005E0FFF740FC02E000202749B2
:105A80000870FFF775FF00281AD0FFF768FA204862
:105A90000078C007C00F13D02048007801280FD12C
:105AA0001F480078002804DD1D480078401E1C496E
:105AB00008701B480078002802D10220174908709E
:105AC00010BD0C480078C007C00F01D001207047FE
:105AD0000020FCE707480078C006C00F01D0012075
